:020000001628C0
:0E0006008312031321088A00200882000800DC
:1000140003208A110A128000840AA00A0319A10A83
:08002400F003031D0A28080087
:10002C008316031386018801831286018801081444
:10003C00893086001A30FC00F830FD00FD0B2428B6
:10004C00FC0B2428000008108814863086001A3017
:10005C00FC00F830FD00FD0B3128FC0B31280000B2
:10006C0088100815C73086001A30FC00F830FD00E7
:10007C00FD0B3E28FC0B3E28000008110817C03071
:10008C0086001A30FC00F830FD00FD0B4B28FC0BF1
:0A009C004B28000008131D2852280D
:02400E004A2F37
:00000001FF
