:02000000AB282B
:10000600710DF80DF90D7408F8027508031C750FCB
:10001600F902F00DF10D0F30FC00710DF80DF90D20
:100026007408701C1C28F8027508031C750FF90269
:100036002128F80775080318750FF907F00DF10D5B
:10004600FC0B102870182D287408F807750803187B
:08005600750FF9070000080016
:0E005E00831203132B088A002A088200080070
:10006C002F208A110A128000840AAA0A0319AB0AEB
:08007C00F003031D3628080003
:10008400831203137408003A031D51287508003ABB
:10009400031D5128FF30F0007F30F100AA2883129D
:1000A4000313FD01F901F801710870040319003408
:1000B40071087506FA00FA1BFD09FB01F51F672894
:1000C400F409F509F40A0319F50AF11F6E28F00979
:1000D400F109F00A0319F10A71087504FA00FA1B10
:1000E400832803207B189628FD1F0034F009F109AA
:1000F400F00A0319F10AF809F909F80A0319F90AC7
:100104000034F51F9228F11B8E287108F90070083D
:10011400F800F101F0017628F101F001F00A003451
:10012400F109F009FB0A7328F80A0319F90A74089B
:100134007802031D762875087902031D7628F901D3
:10014400F801F00A0319F10AF11F76280000FF34C0
:020154000800A1
:10015600C03083120313A000F930A100A430A2001E
:10016600B030A3009930A4009230A5008230A600DA
:10017600F830A7008030A8009030A900B201B30182
:10018600B401B501B601B701B801B90183168501FD
:10019600831285018316860183128601FF3083163A
:1001A600870008108810081788178312880107101F
:1001B600071C62298510051185110130B800003031
:1001C600B900B201B301081FF92880303306F000E8
:1001D60080307002031DF128643032020318F928BA
:1001E600B20A0319B30AB40A0319B50A881F0E29FD
:1001F6008030F000803033067002031D0429320877
:10020600003C03180E290130B202031CB30301306F
:10021600B402031CB5030A30F4000030F5003208BE
:10022600F0003308F10042207008AE007108AF00FC
:100236000A30F4000030F5003208F0003308F1000F
:1002460042207808F0007908F1007008B0007108C3
:10025600B100AC01AD0180302D06F0008030700297
:10026600031D372932302C0203185D2908142E0885
:10027600203E8400000886001A30FC00F830FD009D
:10028600FD0B4329FC0B4329000008108814300895
:10029600203E8400000886001A30FC00F830FD007D
:1002A600FD0B5329FC0B532900008810AC0A0319D7
:1002B600AD0A2E29071860296129E628542A07184D
:1002C600542AAE01AF01B001B10120088600AC018D
:1002D600AD0180302D06F00080307002031D7529B7
:1002E60032302C02031895290814200886001A308B
:1002F600FC00F830FD00FD0B7E29FC0B7E2900007A
:1003060008108814200886001A30FC00F830FD001A
:10031600FD0B8B29FC0B8B2900008810AC0A0319F6
:10032600AD0A6C29B201B301AC01AD018514081FF9
:10033600AD2980303306F00080307002031DA529F8
:10034600643032020318AD29B20A0319B30AB60A99
:100356000319B70A881FC2298030F000803033069F
:100366007002031DB8293208003C0318C229013067
:10037600B202031CB3030130B602031CB7030A30F2
:10038600F4000030F5003208F0003308F100422096
:100396007008AE007108AF000A30F4000030F500B6
:1003A6003208F0003308F10042207808F00079089E
:1003B600F1007008B0007108B100AC01AD018030E9
:1003C6002D06F00080307002031DEB2932302C021E
:1003D6000318112A08142E08203E840000088600FF
:1003E6001A30FC00F830FD00FD0BF729FC0BF7294D
:1003F6000000081088143008203E8400000886009B
:100406001A30FC00F830FD00FD0B072AFC0B072A0A
:1004160000008810AC0A0319AD0AE2293508370630
:10042600031D172A36083406031D4F2A00303906E5
:10043600031D1F2A01303806031D4F2A8510051596
:100446001530FB004B30FC00BE30FD00FD0B292AA9
:10045600FC0B292AFB0B292A0000051185151530EE
:10046600FB004B30FC00BE30FD00FD0B382AFC0BB8
:10047600382AFB0B382A0000851185141530FB003D
:100486004B30FC00BE30FD00FD0B472AFC0B472A13
:10049600FB0B472A0000502A8514071C532A542AAE
:0604A6009A29DB28552A0B
:02400E004A2F37
:00000001FF
