:02000000D52DFC
:06000600000000000800EC
:0E000C00213083120313FD00FD0B0A280800AB
:10001A000F3083120313FC004730FD00FD0B132839
:0A002A00FC0B132800000000080082
:10003400FB14FB1F2428FF30F300F200F100F00052
:08004400FA0DF20CFF30080078
:0E004C00F201F101F001F801F30100300800AB
:10005A007B15FB1F37280130F300F201F101F00193
:08006A00FA0DF20CFF30080052
:08007200FA1FF2130030080030
:10007A0083120313E51B4328861244288616651B40
:10008A004828061249280616E51A4D2886114E28D0
:10009A008615651A52280611532806153618572848
:1000AA00061458280610861403208610E5195F28BE
:1000BA0086126028861665196428061265280616AF
:1000CA00E518692886116A28861565186E280611AA
:1000DA006F28061536187328061474280610861415
:1000EA0003208610361C7B280D207C280620080059
:0600FA00FB15FF300800B9
:10010000831203136308F2007208F100F20A640814
:10011000F000E40A700884000008F0007108840010
:10012000700880007108840000080319982884284A
:060130006308F000080066
:100136000E3083120313FD00FD0B9F2800000800FC
:10014600A0017208031DB8287108F2007008F100BA
:10015600F001A0157208031DB8287108F200F1011C
:10016600A011201672080319C6282008F302031DE1
:10017600031CCA280310F21BCE28F00DF10DF20D58
:10018600F30BBE28CA280130FC002620D1280230F5
:0E019600FC002D20D1280430FC003920080088
:1001A40083120313FA017308031D7A147708031DDD
:1001B400FA147A0803191E29033A0319E9287A184C
:1001C400E628F61F1C291A29F21F1A291C2972086D
:1001D4008039FA00F21376088039F6137A06031987
:1001E400F7287A0803191A291C29770873020319B6
:1001F400FE28031C12291629760872020319052900
:10020400031C122916297508710203190C29031CF1
:10021400122916297408700203191E2903181629B5
:10022400FA0803191C291A29FA0803191A291C297E
:100234000314080003100800031403150800080041
:100244008312031336106308E5003D2036140800BA
:1002540083120313FD01F8017008031900347406B6
:10026400FA00FA1BFD09FB01F41F3A29F409F40A08
:10027400F01F3E29F009F00A70087404FA00FA1B12
:1002840062297408F802F00D700DF80D7408F8076F
:10029400F00D0630FC00700DF80D74087018F802AB
:1002A400701CF807F00DFC0B4D29701CF8077B1827
:1002B4007029FD1F0034F009F00AF809F80A003427
:1002C400F41F6D29F01B6A297008F800F0015B29FE
:1002D400F001F00A0034F009FB0A4329F80A740813
:1002E4007802031D5B29F801F00AF01F5B29FF3433
:0202F400080000
:1002F60083120313FB017308031D77080319D22920
:1003060072087606FA007708F3077E30031C8F29F9
:10031600F3020318D5299229F302031CD82972087F
:10032600F8007108FC007008FD00F817F6170310B6
:10033600F201F101F0011830A0007D1CAC2974080F
:10034600F00775080318750FF10776080318760F7E
:10035600F207F20CF10CF00CF80CFC0CFD0C03107F
:10036600A00BA029F21BBC29F80DF00DF10DF20D22
:10037600F3037B1B701CCE29F81FCE29F00A031944
:10038600F10A0319F20A031DCE29F20CF10CF00C46
:10039600F30A0319D529FA1FF2130030DA290130BE
:1003A6002620DA2902301A20DA2904302D2000000E
:0203B60008003D
:0E03B8008312031338088A00370882000800F9
:1003C600F529803083120313D600082AC030D600E0
:1003D600082A9430D600082AD430D600082A80305D
:1003E600D600082A831203135608013A0319E42992
:1003F6005608023A0319E9295608033A0319EC2963
:100406005608043A0319EF29F2295703F000560853
:10041600F0077008D6007008E5003D203610D901B7
:1004260059085807840000080319212A5908580753
:1004360084000008E3002221D90A132A3614080092
:1004460083120313E101E2015608DD005708DE00BE
:100456005808DF005908E0006008FF3A031D3D2AEE
:100466005F08FF3A031D3D2A5E08FF3A031D3D2A39
:100476005D08FF3A031D472A5A08E3002830E400C6
:1004860080200330F000202C0130DB00DF1F562ACD
:1004960080305F06F0007008DF00DB0A5A0884002F
:1004A6002D308000DA0A0030F0006006031D652A50
:1004B60070085F06031D652A70085E06031D652A1F
:1004C6005D08003A031D6E2A5A08E3002630E40050
:1004D6008020F001202C6008FF3A031D7C2A5F086B
:1004E600003A031D7C2A5E08003A031D7C2A5D083B
:1004F600003A031D862A5A08E3002230E4008020D1
:100506005B08F000202C0030F4000030F5000030CD
:10051600F6007F30F7005D08F0005E08F1005F0826
:10052600F2006008F300D220013003180030F0001A
:1005360070080319B92A5D08F0005E08F1005F082B
:10054600F2006008F3000030F4000030F5002030BF
:10055600F6008230F7007B217008DD007108DE00AE
:100566007208DF007308E000E203862A0030F40018
:100576000030F5002030F6008230F7005D08F0000C
:100586005E08F1005F08F2006008F300D220013037
:10059600031C0030F00070080319EC2A5D08F00017
:1005A6005E08F1005F08F2006008F300CD30F40049
:1005B600CC30F5004C30F6007B30F7007B2170081C
:1005C600DD007108DE007208DF007308E000E20A51
:1005D600B92AFF305D05F800FF305E05F9007F306F
:1005E6005F05FA0000306005FB007808F400790822
:1005F600F5007A08F6007B08F700F40DF50DF60D08
:10060600F70D741000305D05F00000305E05F10056
:1006160000305F05F200FF306005F3007008DD0072
:100626007108DE007208DF007308E00074085D04DC
:10063600F00075085E04F10076085F04F2007708A2
:100646006004F3007008DD007108DE007208DF0048
:100656007308E0007F306002F0007008DC000130B3
:10066600E0007008F4005D08F0005E08F1005F0825
:10067600F2006008F30074080319482BF00DF10D21
:10068600F20DF30D7010FF3E3F2B7008DD00710870
:10069600DE007208DF007308E0006008303EF000FC
:1006A6005A08840070088000DA0A80306206F0007A
:1006B6008030013A7002031C692B8030063AF00044
:1006C600803062067002031C692B702B5A08840066
:1006D6002E308000DA0A0130E1000630DC005C08CA
:1006E600003A0319CE2BE0015D08F0005E08F10028
:1006F6005F08F2006008F300F00DF10DF20DF30D46
:100706007010F00DF10DF20DF30D70105D08F0078D
:100716005E0803185E0FF1075F0803185F0FF20704
:1007260060080318600FF3077008DD007108DE002B
:100736007208DF007308E0005D08F0005E08F10053
:100746005F08F2006008F300F00DF10DF20DF30DF5
:1007560070107008DD007108DE007208DF00730893
:10076600E0006008303EF0005A08840070088000FF
:10077600DA0A6108003A031DCC2BE2036208003A4C
:10078600031DCC2B5A0884002E308000DA0A013073
:10079600E100DC03722BFF305A0784000008303A70
:1007A600031DD72BDA03CE2BFF305A07840000082F
:1007B6002E3A031DDF2BDA036208003A03191C2CBC
:1007C6005A08840065308000DA0A80306206F0003C
:1007D6008030003A70020318F82B5A0884002D3036
:1007E6008000DA0A6208003CE2006208DC00803021
:1007F600093AF00080306206700203180E2C0A30A7
:10080600F4005C08F0002A213030F0075A08840012
:1008160070088000DA0A0A30F4005C08F0002A2129
:100826007808F0003030F0075A088400700880001D
:0C083600DA0A5A0884008001F001080072
:10084200831203137408003A031D3C2C7508003A06
:10085200031D3C2C7608003A031D3C2C7708003A15
:10086200031D3C2CFF30F000FF30F1007F30F2001E
:10087200FF30F300D72C8312031377080319CB2C14
:1008820073080319CE2C720876068039FA00F21723
:10089200F617A0017208F8007108FC007008FD004C
:1008A2007408FD027508031C750FFC027608031C10
:1008B200760FF802F801FC01FD01031C672C0310FE
:1008C200F20CF10CF00CF80C0130A0007708F302E6
:1008D200031C712C7E302007F3070318D12C762CD1
:1008E2007E302007F307031CD42C1830FA07FD0DC5
:1008F200FC0DF80DF00DF10DF20DA00D7408F002D3
:100902007508031C750FF1027608031C760FF202BC
:10091200760DA004201C8F2C7D149A2C7408F007ED
:1009220075080318750FF10776080318760AF2079F
:100932007D10FA031F307A05031D782C7B1B7D1C6A
:10094200C12C0310F00DF10DF20DA00D7408F00290
:100952007508031C750FF1027608031C760FF2026C
:10096200760D20040139FD070318FC0A0319F80A61
:10097200031DC12CF80CFC0CFD0CF30A0319D12C3D
:10098200FA1FF8137808F2007C08F1007D08F000E5
:100992000030D62C01307D20D62C02302620D62CD9
:0E09A20004301A20D62C08302D20000008004A
:1009B000831203137008F8007108F000F101F201CE
:1009C000F301FB01FC019630F300FA01F01FEE2C5D
:1009D000F809F009F80A0319F00AFA177008F1008B
:0C09E0007808F000F801F201A3200800E4
:1009EC0083120313D7015708560784000008031914
:1009FC00072D5708560784000008E3002221D70A68
:040A0C00F92C0800B9
:100A1000831203139F01C0309F042109F000700866
:100A200083169F051F179F1783125608F000F00DBD
:100A30007010F00D7010F00D701070089F041F14EE
:100A40009B201F151F1D262D0000222D1F101E0884
:100A5000F100F00183161E08F0040030F1040800D4
:100A6000FF3083120313C300FF30C400FF30C50002
:100A7000FF309F01C0309F042109F00070088316E9
:0C0A80009F051F179F1783121F1408000A
:100A8C00DC218A110A128000840AB70A0319B80AF9
:080A9C00F003031D462D0800C4
:100AA400642D803083120313D600772DC030D60016
:100AB400772D9430D600772DD430D600772D803022
:100AC400D600772D831203135608013A0319532DC8
:100AD4005608023A0319582D5608033A03195B2D98
:100AE4005608043A03195E2D612D5703F000560889
:100AF400F0077008D60036147008E5003D20361063
:0A0B04005808E5003D2036140800F3
:100B0E00831603138610061006118611061286121E
:100B1E0083128610061086120612861106110D20FB
:100B2E000D200D20861506158614032086100D2027
:100B3E008614032086100D208614032086100D20A7
:100B4E0006118614032086100D20861403208610AD
:100B5E00861186168614032086100D208612061521
:100B6E0086140320861006118614032086100D208D
:100B7E0086140320861006158614032086100D2079
:100B8E00061186140320861086160616861506157F
:0C0B9E008614032086100D203614080079
:100BAA005826831603138601FF30850080309F0084
:100BBA00872530250130E5003D200C30E5003D2039
:100BCA00D601082570088312B9007108BA00D82422
:100BDA00F630F4002830F5001C30F6008130F700BA
:100BEA007B217008BF007108C0007208C100730839
:100BFA00C2000030F4000030F5002030F6008230E8
:100C0A00F70021247008BB007108BC007208BD00FF
:100C1A007308BE000130D6000130D7002C30D8004E
:100C2A00E3213B08D6003C08D7003D08D8003E081F
:100C3A00D9004630DA0023224630D600F6240130A5
:100C4A00D6001030D700DF30D80052253330D60016
:100C5A00F6240B30FB002630FC005D30FD00FD0B56
:100C6A00342EFC0B342EFB0B342E00000000E52D35
:020C7A003D2E0D
:100CB00021308400153083120313F0004330B70055
:080CC0000630B80046250800CB
:020C86000F3429
:080C880049344E3446340034B7
:040C900030340034C8
:080C94004E3461344E3400348B
:0E0C9C00543465346D3470343D3420340034EB
:060CAA0020344334003445
:02400E004A2F37
:00000001FF
