:020000006E2967
:1000060083120313F801F9011030FC00710DF80D8D
:10001600F90D7408F8027508031C750FF902031828
:100026001B287408F80775080318750FF9070310DD
:0A003600F00DF10DFC0B0928080085
:100040000E3083120313FD00FD0B2428000008006E
:100050008316031398182E280000282883124708B7
:0400600099000800FB
:1000640083120313CA0105304A02031840284A08C0
:100074004907840020308000CA0A35284A08490705
:1000840084008001CA034A084907CB000A30F400FF
:10009400F5014708F0004808F10003207808F00053
:1000A4007908F1003030F0074B08840070088000B4
:1000B4000A30F400F5014708F0004808F100032075
:1000C4007008C7007108C80000307106031D6C2851
:1000D40000307006031D6F287128CA0345280800E4
:0E00E4008312031334088A00330882000800D8
:1000F200831603139816903083129800831687177D
:10010200071383128C1E88281A08F0008228080020
:10011200831203139F01C0309F043109F00070085D
:1001220083169F051F179F1783123E08F000F00DDC
:100132007010F00D7010F00D701070089F041F14F5
:1001420020201F151F1DA7280000A3281F101E080E
:10015200F100F00183161E08F0040030F1040800DB
:10016200FF3083120313BB00FF30BC00FF30BD0021
:10017200FF309F01C0309F043109F00070088316E0
:0C0182009F051F179F1783121F14080011
:10018E00831203133E08F2007208F100F20A3F08D0
:10019E00F000BF0A700884000008F00071088400A7
:1001AE00700880007108840000080319DF28CB282E
:0601BE003E08F0000800FD
:1001C40083120313C0013E0884000008BF003F08E7
:1001D400003A0319F7283F08C7002820C00A40083E
:0C01E4003E0784000008BF00E928080066
:1001F00083120313C301C4013E08C5003F08C600B3
:1002000080303F06F00080307002031D0929003065
:100210003E02031817290130C3000030C4003E0815
:10022000003CC5003F08031C013EC601C60245084C
:10023000C7004608C8004008C90032200630C10087
:100240000030C2004208003C031D28294108003C40
:100250000318432941084007F20001304102F00031
:100260000030031C013E4202F10070084007840088
:100270000008F00072088400700880000130C1029C
:10028000031CC20322294008840020308000430858
:10029000440403196129C101C201410840078400D7
:1002A0000008203A031D5829C10A0319C20A4D2922
:1002B0000130C102031CC2034108400784002D30F5
:0402C00080000800B2
:1002C40072208A110A128000840AB30A0319B40A3C
:0802D400F003031D622908007C
:1002DC00BA21333083160313990018157920B120F5
:1002EC00BE01892070088312B5007108B600700831
:1002FC00BE007108BF003730C000F8202030BE00AF
:10030C00E2203730BE00E2203730BE003230BF0072
:10031C00C7200D30C70028200B30FB002630FC0016
:10032C005D30FD00FD0B9829FC0B9829FB0B9829DF
:08033C00000000007629A12950
:1003740020308400133083120313F000A730B3003D
:080384000130B4006221080001
:10034E0041346E3461346C346F3467342034763417
:10035E0061346C34753465342034693473343D340F
:02036E00003459
:020370000F3448
:02037200003455
:02400E004A2F37
:00000001FF
