:020000001628C0
:0E000600831203132B088A002A0882000800C8
:1000140003208A110A128000840AAA0A0319AB0A6F
:08002400F003031D0A28080087
:10002C00C03083120313A000F930A100A430A20049
:10003C00B030A3009930A4009230A5008230A60005
:10004C00F830A7008030A8009030A900AC01AD01B9
:10005C0083168601831286010330FB000830FC00F6
:10006C007730FD00FD0B3828FC0B3828FB0B3828AB
:10007C00AC01AD018030F00080302D067002031D04
:10008C0049282C08093C031C62282C08203E8400BB
:10009C00000886000B30FB002630FC005D30FD00B4
:1000AC00FD0B5628FC0B5628FB0B562800000000B5
:0C00BC00AC0A0319AD0A40283228632862
:02400E004A2F37
:00000001FF
