:02000000762860
:1000060083120313FB01FA01F9018030F800F10CA9
:10001600F00C031C17287408F90775080318750FE8
:10002600FA070318FB0A0310F01F1F287408FA07C3
:1000360075080318750FFB07FB0CFA0CF90CF80C86
:10004600031C0A287B08F3007A08F2007908F100FD
:060056007808F00008002C
:0C005C008312031395011712971208007D
:10006800831603130711831212150C309704080026
:10007800831603131208013EF000F1010318F10A78
:1000880083122408F400F50103200630F2007008FA
:10009800F4007108F500720803195728F50CF40CE0
:1000A800F513FF3E50280430F1007408F000710881
:1000B80003196228F00D7010FF3E5C28303070057F
:1000C800F3007408F0007508F100F10CF00CF1135E
:1000D800F10CF00CF113700895000F3097057308B8
:0400E8009704080071
:1000EC0083120313A201A3018316860183128601D6
:1000FC00831687018312870112149210F93083162C
:10010C0092002E20FF308316880034202208A40091
:10011C003C2006148610081CB9280330FB0008305C
:10012C00FC007730FD00FD0B9928FC0B9928FB0B8C
:10013C00992880302306F00080307002031DA82817
:10014C00FA3022020318B8280A302207F0002308DC
:10015C000318013EF1007008A2007108A30070089A
:10016C00A4003C200714881CE2280330FB00083054
:10017C00FC007730FD00FD0BC128FC0BC128FB0BEC
:10018C00C12880302306F00080307002031DD02877
:10019C000A302202031CE1280A302202F00000304F
:1001AC00031C013E2302F1007008A2007108A30099
:0C01BC007008A4003C2007149128E328E0
:02400E004A2F37
:00000001FF
