:020000009E2A36
:10000800FF00030E83018316C7000A08C8008A018F
:1000180083128C1C13280130B80012118C1083161F
:0E00280048088A00470E8300FF0E7F0E090075
:0E003600213083120313FD00FD0B1F2808006C
:06004400000000000800AE
:10004A000F3083120313FC004730FD00FD0B2B28F1
:0A005A00FC0B2B280000000008003A
:1000640083160313D71B3928831286123B28831265
:1000740086168316571B41288312061243288312BF
:1000840006168316D71A4928831286114B28831221
:1000940086158316571A5128831206115328831282
:1000A400061583163D185928831206145B288312FB
:1000B40006108614222086108316D719642883120A
:1000C4008612662883128616831657196C288312A3
:1000D40006126E28831206168316D7187428831204
:1000E4008611762883128615831657187C28831266
:1000F40006117E288312061583163D188428831260
:10010400061486288312061086142220861083166D
:0C0114003D1C8E2825208F281B20080091
:1001200083120313F801F9011030FC00710DF80D72
:10013000F90D7408F8027508031C750FF90203180D
:10014000A8287408F80775080318750FF907031035
:0A015000F00DF10DFC0B96280800DD
:10015A0083160313D501053055020318BB28550829
:10016A005407840020308000D50AB0285508540767
:10017A0084008001D50355085407D6000A30F400DC
:10018A00F5015208F0005308F10090207808F000B9
:10019A007908F1003030F007831656088400700899
:1001AA0080000A30F400F5015208F0005308F1000B
:1001BA00902070088316D2007108D30000307106AF
:1001CA00031DE92800307006031DEC28EE28D5032C
:0401DA00C028080031
:1001DE00831603133D105208D700322083163D14A8
:0201EE00080007
:1001F000831603139818FE280000F828520883126B
:040200009900080059
:0E0204008316031333088A00320882000800B4
:1002120083120313B8019101121508181429380822
:10022200031D14290E29380803191929F001282958
:100232009101081C20293808031D20291A29380891
:1002420003192529F001282912110130F0000800B4
:1002520083160313CB01490884000008CA004A0828
:10026200003A03193F294A08D200F8208316CB0A24
:0E0272004B08490784000008CA003029080024
:100280005229803083160313C9006529C030C90084
:1002900065299430C9006529D430C90065298030AA
:1002A000C9006529831603134908013A0319412936
:1002B0004908023A031946294908033A031949290A
:1002C0004908043A03194C294F294A03F000490808
:1002D000F0077008C9007008D700322083163D105F
:1002E000CC014C084B078400000803197F294C08F7
:1002F0004B0784000008D200EF20CC0A71293D147E
:020300000800F3
:1003020083160313CE01CF014908D0004A08D10059
:1003120080304A06F00080307002031D92290030BE
:1003220049020318A0290130CE000030CF0049084D
:10033200003CD0004A08031C013ED101D102500802
:10034200D2005108D3004B08D400AD200630CC00B7
:100352000030CD004D08003C031DB1294C08003C83
:100362000318CC294C084B07F20001304C02F00074
:100372000030031C013E4D02F10070084B0784005F
:100382000008F00072088400700880000130CC027E
:10039200031CCD03AB294B088400203080004E089B
:1003A2004F040319EA29CC01CD014C084B07840004
:1003B2000008203A031DE129CC0A0319CD0AD629E7
:1003C2000130CC02031CCD034C084B0784002D30B6
:0403D200800008009F
:1003D60083160313C9010814BC0108303C02031834
:1003E600182A83120818F829F4291A30FD00FD0B83
:1003F600FA290000081C112A83163C08073CF00065
:100406007008F1000130F000710803190E2AF00D92
:100416007010FF3E082A83167008C9048312081C50
:10042600152A112A8316BC0AF0294908F00008008B
:1004360083160313861006100611861106128612FD
:1004460083128610061086120612861106112520C2
:10045600252025208615061586142220861025209F
:100466008614222086102520861422208610252018
:100476000611861422208610252086142220861036
:1004860086118616861422208610252086120615C9
:100496008614222086100611861422208610252016
:1004A6008614222086100615861422208610252002
:1004B600061186142220861086160616861506153F
:0E04C600861422208610252083163D1408007F
:1004D400831603130810831208104130FC00EE3019
:1004E400FD00FD0B732AFC0B732A00000814133063
:1004F400FD00FD0B7B2A0000000083160814080091
:1005040002218A110A128000840AB20A0319B30A6A
:08051400F003031D822A080018
:10051C00831603139816903083129800831687174E
:10052C00071383128C1E9D2A1A08F000972A0800C4
:10053C006224831603138601FF308500081008130C
:10054C0088178312880102308316B4000030B5007E
:10055C00081083120810073083169C0007309F0088
:10056C008B170B178C14831292018C109101333062
:10057C008316990018158E221B220130D7003220C9
:10058C000C308316D7003220081383120030881BDE
:10059C0001308316BA00BB013A08C9003B08CA00F7
:1005AC00B630CB0081212C30C9002921B630C900CE
:1005BC0029210D30D200F820F101881BF10A0130FD
:1005CC007102031CEB2A0817EC2A081383168C14EF
:1005DC0007309F006A2209217008031D092B013086
:1005EC008316D700322001308316C9000130CA00AF
:1005FC002030CB0040210230C9000130CA005B30F2
:10060C00CB004021EA2BEB217008C200C301EB2187
:10061C007008C000C101EB217008BE00BF01EB21C6
:10062C007008C400C501EB217008C60040084207E1
:10063C00F10043080318013E4107F2003E08F107A0
:10064C003F080318013EF2074408F1074508031858
:10065C00013EF207FF307105F3007208F400003020
:10066C00F40500307406031D3D2B73087006031D42
:10067C00D82B0130C9000130CA00A830CB00402172
:10068C000230C9000130CA00A230CB0040210A3030
:10069C00F4000030F5004208F0004308F10090200F
:1006AC0030307007EB000A30F4000030F500831690
:1006BC004208F0004308F10090207808F000790817
:1006CC00F10030307007EC000A30F4000030F50017
:1006DC0083164008F0004108F10090207808F000E3
:1006EC007908F10030307007EE0001308316C90034
:1006FC000B30CA006B30CB0040210130C9001030E8
:10070C00CA00A030CB0040210A30F4000030F500C4
:10071C003E08F0003F08F100902030307007EB00ED
:10072C000A30F4000030F50083163E08F0003F0854
:10073C00F10090207808F0007908F1003030700753
:10074C00EC000A30F4000030F50083164408F00089
:10075C004508F10090207808F0007908F10030305D
:10076C007007EE0002308316C9000B30CA006B30E4
:10077C00CB004021DF30D200EF200230C900103016
:10078C00CA005930CB0040211530FB004B30FC0027
:10079C00BE30FD00FD0BD02BFC0BD02BFB0BD02B5C
:1007AC000000EA2B0130D700322001308316C9003B
:1007BC000130CA003930CB0040210230C900013071
:1007CC00CA004930CB0040218C100B30FB00263086
:1007DC00FC005D30FD00FD0BF12BFC0BF12BFB0B3A
:0A07EC00F12B00000000CB2AFA2BCD
:1008C40020308400503083120313F000003083166C
:1008D400B2000430B3008222A0308400123003132B
:1008E400F00050308316B2000430B30082220800B6
:100800004E346F34203472346534733470346F3442
:080810006E34733465340034CA
:100818004734613473342034763461346C3475343D
:0808280065343D342034003436
:02083000003492
:1008320043346834653463346B34733475346D34E3
:1008420020344534723472346F34723421340034BB
:1008520054347234793469346E3467342034413418
:100862006734613469346E342E342E342E340034BD
:0408720043340034D7
:10087600663472346F346D342034743468346534BD
:100886002034733465346E3473346F347234003408
:0A089600303430342E343034003496
:0408A00025340034C7
:0C08A400543445344D3450343A340034A0
:1008B000483455344D34493444344934543459342B
:0408C0003A34003492
:02400E004A2F37
:00000001FF
