:020000001628C0
:0E000600831203132B088A002A0882000800C8
:1000140003208A110A128000840AAA0A0319AB0A6F
:08002400F003031D0A28080087
:10002C003F3083120313A0000630A1005B30A20006
:10003C004F30A3006630A4006D30A5007D30A600C3
:10004C000730A7007F30A8006F30A900AC01AD01CC
:10005C008316860183128601FF3083168800831273
:10006C00081C52280330FB000830FC007730FD00E0
:10007C00FD0B3E28FC0B3E28FB0B3E2880302D064A
:10008C00F00080307002031D4D2809302C0203183B
:10009C005228AC0A0319AD0A881C6F280330FB00E8
:1000AC000830FC007730FD00FD0B5A28FC0B5A2859
:1000BC00FB0B5A288030F00080302D067002031D97
:1000CC0069282C08003C03186F280130AC02031C73
:1000DC00AD032C08203E84000008860035287528C6
:02400E004A2F37
:00000001FF
